{
  "contractName": "TokenVesting",
  "abi": [
    {
      "inputs": [
        {
          "internalType": "address",
          "name": "token_DBETH_",
          "type": "address"
        }
      ],
      "stateMutability": "nonpayable",
      "type": "constructor"
    },
    {
      "anonymous": false,
      "inputs": [
        {
          "indexed": true,
          "internalType": "address",
          "name": "previousOwner",
          "type": "address"
        },
        {
          "indexed": true,
          "internalType": "address",
          "name": "newOwner",
          "type": "address"
        }
      ],
      "name": "OwnershipTransferred",
      "type": "event"
    },
    {
      "anonymous": false,
      "inputs": [
        {
          "indexed": false,
          "internalType": "uint256",
          "name": "amount",
          "type": "uint256"
        }
      ],
      "name": "Released",
      "type": "event"
    },
    {
      "anonymous": false,
      "inputs": [],
      "name": "Revoked",
      "type": "event"
    },
    {
      "stateMutability": "payable",
      "type": "fallback",
      "payable": true
    },
    {
      "inputs": [],
      "name": "owner",
      "outputs": [
        {
          "internalType": "address",
          "name": "",
          "type": "address"
        }
      ],
      "stateMutability": "view",
      "type": "function",
      "constant": true
    },
    {
      "inputs": [],
      "name": "renounceOwnership",
      "outputs": [],
      "stateMutability": "nonpayable",
      "type": "function"
    },
    {
      "inputs": [
        {
          "internalType": "address",
          "name": "newOwner",
          "type": "address"
        }
      ],
      "name": "transferOwnership",
      "outputs": [],
      "stateMutability": "nonpayable",
      "type": "function"
    },
    {
      "stateMutability": "payable",
      "type": "receive",
      "payable": true
    },
    {
      "inputs": [
        {
          "internalType": "address",
          "name": "_beneficiary",
          "type": "address"
        }
      ],
      "name": "getVestingSchedulesCountByBeneficiary",
      "outputs": [
        {
          "internalType": "uint256",
          "name": "",
          "type": "uint256"
        }
      ],
      "stateMutability": "view",
      "type": "function",
      "constant": true
    },
    {
      "inputs": [
        {
          "internalType": "uint256",
          "name": "index",
          "type": "uint256"
        }
      ],
      "name": "getVestingIdAtIndex",
      "outputs": [
        {
          "internalType": "bytes32",
          "name": "",
          "type": "bytes32"
        }
      ],
      "stateMutability": "view",
      "type": "function",
      "constant": true
    },
    {
      "inputs": [
        {
          "internalType": "address",
          "name": "holder",
          "type": "address"
        },
        {
          "internalType": "uint256",
          "name": "index",
          "type": "uint256"
        }
      ],
      "name": "getVestingScheduleByAddressAndIndex",
      "outputs": [
        {
          "components": [
            {
              "internalType": "bool",
              "name": "initialized",
              "type": "bool"
            },
            {
              "internalType": "address",
              "name": "beneficiary",
              "type": "address"
            },
            {
              "internalType": "uint256",
              "name": "cliff",
              "type": "uint256"
            },
            {
              "internalType": "uint256",
              "name": "start",
              "type": "uint256"
            },
            {
              "internalType": "uint256",
              "name": "duration",
              "type": "uint256"
            },
            {
              "internalType": "uint256",
              "name": "slicePeriodSeconds",
              "type": "uint256"
            },
            {
              "internalType": "bool",
              "name": "revocable",
              "type": "bool"
            },
            {
              "internalType": "uint256",
              "name": "amountTotal",
              "type": "uint256"
            },
            {
              "internalType": "uint256",
              "name": "released",
              "type": "uint256"
            },
            {
              "internalType": "bool",
              "name": "revoked",
              "type": "bool"
            }
          ],
          "internalType": "struct TokenVesting.VestingSchedule",
          "name": "",
          "type": "tuple"
        }
      ],
      "stateMutability": "view",
      "type": "function",
      "constant": true
    },
    {
      "inputs": [],
      "name": "getVestingSchedulesTotalAmount",
      "outputs": [
        {
          "internalType": "uint256",
          "name": "",
          "type": "uint256"
        }
      ],
      "stateMutability": "view",
      "type": "function",
      "constant": true
    },
    {
      "inputs": [],
      "name": "getToken",
      "outputs": [
        {
          "internalType": "address",
          "name": "",
          "type": "address"
        }
      ],
      "stateMutability": "view",
      "type": "function",
      "constant": true
    },
    {
      "inputs": [
        {
          "internalType": "address",
          "name": "_beneficiary",
          "type": "address"
        },
        {
          "internalType": "uint256",
          "name": "_start",
          "type": "uint256"
        },
        {
          "internalType": "uint256",
          "name": "_cliff",
          "type": "uint256"
        },
        {
          "internalType": "uint256",
          "name": "_duration",
          "type": "uint256"
        },
        {
          "internalType": "uint256",
          "name": "_slicePeriodSeconds",
          "type": "uint256"
        },
        {
          "internalType": "bool",
          "name": "_revocable",
          "type": "bool"
        },
        {
          "internalType": "uint256",
          "name": "_amount",
          "type": "uint256"
        }
      ],
      "name": "createVestingSchedule",
      "outputs": [],
      "stateMutability": "nonpayable",
      "type": "function"
    },
    {
      "inputs": [
        {
          "internalType": "bytes32",
          "name": "vestingScheduleId",
          "type": "bytes32"
        }
      ],
      "name": "revoke",
      "outputs": [],
      "stateMutability": "nonpayable",
      "type": "function"
    },
    {
      "inputs": [
        {
          "internalType": "uint256",
          "name": "amount",
          "type": "uint256"
        }
      ],
      "name": "withdraw",
      "outputs": [],
      "stateMutability": "nonpayable",
      "type": "function"
    },
    {
      "inputs": [
        {
          "internalType": "bytes32",
          "name": "vestingScheduleId",
          "type": "bytes32"
        },
        {
          "internalType": "uint256",
          "name": "amount",
          "type": "uint256"
        }
      ],
      "name": "release",
      "outputs": [],
      "stateMutability": "nonpayable",
      "type": "function"
    },
    {
      "inputs": [],
      "name": "getVestingSchedulesCount",
      "outputs": [
        {
          "internalType": "uint256",
          "name": "",
          "type": "uint256"
        }
      ],
      "stateMutability": "view",
      "type": "function",
      "constant": true
    },
    {
      "inputs": [
        {
          "internalType": "bytes32",
          "name": "vestingScheduleId",
          "type": "bytes32"
        }
      ],
      "name": "computeReleasableAmount",
      "outputs": [
        {
          "internalType": "uint256",
          "name": "",
          "type": "uint256"
        }
      ],
      "stateMutability": "view",
      "type": "function",
      "constant": true
    },
    {
      "inputs": [
        {
          "internalType": "bytes32",
          "name": "vestingScheduleId",
          "type": "bytes32"
        }
      ],
      "name": "getVestingSchedule",
      "outputs": [
        {
          "components": [
            {
              "internalType": "bool",
              "name": "initialized",
              "type": "bool"
            },
            {
              "internalType": "address",
              "name": "beneficiary",
              "type": "address"
            },
            {
              "internalType": "uint256",
              "name": "cliff",
              "type": "uint256"
            },
            {
              "internalType": "uint256",
              "name": "start",
              "type": "uint256"
            },
            {
              "internalType": "uint256",
              "name": "duration",
              "type": "uint256"
            },
            {
              "internalType": "uint256",
              "name": "slicePeriodSeconds",
              "type": "uint256"
            },
            {
              "internalType": "bool",
              "name": "revocable",
              "type": "bool"
            },
            {
              "internalType": "uint256",
              "name": "amountTotal",
              "type": "uint256"
            },
            {
              "internalType": "uint256",
              "name": "released",
              "type": "uint256"
            },
            {
              "internalType": "bool",
              "name": "revoked",
              "type": "bool"
            }
          ],
          "internalType": "struct TokenVesting.VestingSchedule",
          "name": "",
          "type": "tuple"
        }
      ],
      "stateMutability": "view",
      "type": "function",
      "constant": true
    },
    {
      "inputs": [],
      "name": "getWithdrawableAmount",
      "outputs": [
        {
          "internalType": "uint256",
          "name": "",
          "type": "uint256"
        }
      ],
      "stateMutability": "view",
      "type": "function",
      "constant": true
    },
    {
      "inputs": [
        {
          "internalType": "address",
          "name": "holder",
          "type": "address"
        }
      ],
      "name": "computeNextVestingScheduleIdForHolder",
      "outputs": [
        {
          "internalType": "bytes32",
          "name": "",
          "type": "bytes32"
        }
      ],
      "stateMutability": "view",
      "type": "function",
      "constant": true
    },
    {
      "inputs": [
        {
          "internalType": "address",
          "name": "holder",
          "type": "address"
        }
      ],
      "name": "getLastVestingScheduleForHolder",
      "outputs": [
        {
          "components": [
            {
              "internalType": "bool",
              "name": "initialized",
              "type": "bool"
            },
            {
              "internalType": "address",
              "name": "beneficiary",
              "type": "address"
            },
            {
              "internalType": "uint256",
              "name": "cliff",
              "type": "uint256"
            },
            {
              "internalType": "uint256",
              "name": "start",
              "type": "uint256"
            },
            {
              "internalType": "uint256",
              "name": "duration",
              "type": "uint256"
            },
            {
              "internalType": "uint256",
              "name": "slicePeriodSeconds",
              "type": "uint256"
            },
            {
              "internalType": "bool",
              "name": "revocable",
              "type": "bool"
            },
            {
              "internalType": "uint256",
              "name": "amountTotal",
              "type": "uint256"
            },
            {
              "internalType": "uint256",
              "name": "released",
              "type": "uint256"
            },
            {
              "internalType": "bool",
              "name": "revoked",
              "type": "bool"
            }
          ],
          "internalType": "struct TokenVesting.VestingSchedule",
          "name": "",
          "type": "tuple"
        }
      ],
      "stateMutability": "view",
      "type": "function",
      "constant": true
    },
    {
      "inputs": [
        {
          "internalType": "address",
          "name": "holder",
          "type": "address"
        },
        {
          "internalType": "uint256",
          "name": "index",
          "type": "uint256"
        }
      ],
      "name": "computeVestingScheduleIdForAddressAndIndex",
      "outputs": [
        {
          "internalType": "bytes32",
          "name": "",
          "type": "bytes32"
        }
      ],
      "stateMutability": "pure",
      "type": "function",
      "constant": true
    }
  ],
  "bytecode": "0x60806040523480156200001157600080fd5b50604051620032fb380380620032fb833981810160405281019062000037919062000216565b620000576200004b620000e060201b60201c565b620000e860201b60201c565b60018081905550600073ffffffffffffffffffffffffffffffffffffffff168173ffffffffffffffffffffffffffffffffffffffff16036200009857600080fd5b80600260006101000a81548173ffffffffffffffffffffffffffffffffffffffff021916908373ffffffffffffffffffffffffffffffffffffffff1602179055505062000248565b600033905090565b60008060009054906101000a900473ffffffffffffffffffffffffffffffffffffffff169050816000806101000a81548173ffffffffffffffffffffffffffffffffffffffff021916908373ffffffffffffffffffffffffffffffffffffffff1602179055508173ffffffffffffffffffffffffffffffffffffffff168173ffffffffffffffffffffffffffffffffffffffff167f8be0079c531659141344cd1fd0a4f28419497f9722a3daafe3b4186f6b6457e060405160405180910390a35050565b600080fd5b600073ffffffffffffffffffffffffffffffffffffffff82169050919050565b6000620001de82620001b1565b9050919050565b620001f081620001d1565b8114620001fc57600080fd5b50565b6000815190506200021081620001e5565b92915050565b6000602082840312156200022f576200022e620001ac565b5b60006200023f84828501620001ff565b91505092915050565b6130a380620002586000396000f3fe6080604052600436106101185760003560e01c80638af104da116100a0578063ea1bb3d511610064578063ea1bb3d5146103a7578063f2fde38b146103e4578063f51321d71461040d578063f7c469f01461044a578063f9079b37146104875761011f565b80638af104da146102ae5780638da5cb5b146102eb57806390be10cc146103165780639ef346b414610341578063b75c7dc61461037e5761011f565b806348deb471116100e757806348deb471146101c95780635a7bb69a146101f457806366afd8ef14610231578063715018a61461025a5780637e913dc6146102715761011f565b8063130836171461012157806317e289e91461014c57806321df0da7146101755780632e1a7d4d146101a05761011f565b3661011f57005b005b34801561012d57600080fd5b506101366104c4565b6040516101439190611fc2565b60405180910390f35b34801561015857600080fd5b50610173600480360381019061016e91906120a4565b6104d1565b005b34801561018157600080fd5b5061018a6109a8565b6040516101979190612155565b60405180910390f35b3480156101ac57600080fd5b506101c760048036038101906101c29190612170565b6109d2565b005b3480156101d557600080fd5b506101de610baa565b6040516101eb9190611fc2565b60405180910390f35b34801561020057600080fd5b5061021b6004803603810190610216919061219d565b610bb4565b6040516102289190611fc2565b60405180910390f35b34801561023d57600080fd5b5061025860048036038101906102539190612200565b610bfd565b005b34801561026657600080fd5b5061026f610fb1565b005b34801561027d57600080fd5b506102986004803603810190610293919061219d565b611039565b6040516102a59190612339565b60405180910390f35b3480156102ba57600080fd5b506102d560048036038101906102d09190612355565b61119e565b6040516102e291906123a4565b60405180910390f35b3480156102f757600080fd5b506103006111d1565b60405161030d9190612155565b60405180910390f35b34801561032257600080fd5b5061032b6111fa565b6040516103389190611fc2565b60405180910390f35b34801561034d57600080fd5b50610368600480360381019061036391906123bf565b6112b1565b6040516103759190612339565b60405180910390f35b34801561038a57600080fd5b506103a560048036038101906103a091906123bf565b6113c2565b005b3480156103b357600080fd5b506103ce60048036038101906103c991906123bf565b611684565b6040516103db9190611fc2565b60405180910390f35b3480156103f057600080fd5b5061040b6004803603810190610406919061219d565b611807565b005b34801561041957600080fd5b50610434600480360381019061042f9190612355565b6118fe565b6040516104419190612339565b60405180910390f35b34801561045657600080fd5b50610471600480360381019061046c919061219d565b611920565b60405161047e91906123a4565b60405180910390f35b34801561049357600080fd5b506104ae60048036038101906104a99190612170565b611972565b6040516104bb91906123a4565b60405180910390f35b6000600380549050905090565b6104d96119e3565b73ffffffffffffffffffffffffffffffffffffffff166104f76111d1565b73ffffffffffffffffffffffffffffffffffffffff161461054d576040517f08c379a000000000000000000000000000000000000000000000000000000000815260040161054490612449565b60405180910390fd5b803073ffffffffffffffffffffffffffffffffffffffff166390be10cc6040518163ffffffff1660e01b8152600401602060405180830381865afa158015610599573d6000803e3d6000fd5b505050506040513d601f19601f820116820180604052508101906105bd919061247e565b10156105fe576040517f08c379a00000000000000000000000000000000000000000000000000000000081526004016105f590612543565b60405180910390fd5b60008411610641576040517f08c379a0000000000000000000000000000000000000000000000000000000008152600401610638906125d5565b60405180910390fd5b60008111610684576040517f08c379a000000000000000000000000000000000000000000000000000000000815260040161067b90612641565b60405180910390fd5b60018310156106c8576040517f08c379a00000000000000000000000000000000000000000000000000000000081526004016106bf906126d3565b60405180910390fd5b60003073ffffffffffffffffffffffffffffffffffffffff1663f7c469f0896040518263ffffffff1660e01b81526004016107039190612155565b602060405180830381865afa158015610720573d6000803e3d6000fd5b505050506040513d601f19601f820116820180604052508101906107449190612708565b9050600061075b87896119eb90919063ffffffff16565b90506040518061014001604052806001151581526020018a73ffffffffffffffffffffffffffffffffffffffff168152602001828152602001898152602001878152602001868152602001851515815260200184815260200160008152602001600015158152506004600084815260200190815260200160002060008201518160000160006101000a81548160ff02191690831515021790555060208201518160000160016101000a81548173ffffffffffffffffffffffffffffffffffffffff021916908373ffffffffffffffffffffffffffffffffffffffff16021790555060408201518160010155606082015181600201556080820151816003015560a0820151816004015560c08201518160050160006101000a81548160ff02191690831515021790555060e0820151816006015561010082015181600701556101208201518160080160006101000a81548160ff0219169083151502179055509050506108d2836005546119eb90919063ffffffff16565b60058190555060038290806001815401808255809150506001900390600052602060002001600090919091909150556000600660008b73ffffffffffffffffffffffffffffffffffffffff1673ffffffffffffffffffffffffffffffffffffffff1681526020019081526020016000205490506109596001826119eb90919063ffffffff16565b600660008c73ffffffffffffffffffffffffffffffffffffffff1673ffffffffffffffffffffffffffffffffffffffff1681526020019081526020016000208190555050505050505050505050565b6000600260009054906101000a900473ffffffffffffffffffffffffffffffffffffffff16905090565b600260015403610a17576040517f08c379a0000000000000000000000000000000000000000000000000000000008152600401610a0e90612781565b60405180910390fd5b6002600181905550610a276119e3565b73ffffffffffffffffffffffffffffffffffffffff16610a456111d1565b73ffffffffffffffffffffffffffffffffffffffff1614610a9b576040517f08c379a0000000000000000000000000000000000000000000000000000000008152600401610a9290612449565b60405180910390fd5b803073ffffffffffffffffffffffffffffffffffffffff166390be10cc6040518163ffffffff1660e01b8152600401602060405180830381865afa158015610ae7573d6000803e3d6000fd5b505050506040513d601f19601f82011682018060405250810190610b0b919061247e565b1015610b4c576040517f08c379a0000000000000000000000000000000000000000000000000000000008152600401610b4390612813565b60405180910390fd5b610ba0610b576111d1565b82600260009054906101000a900473ffffffffffffffffffffffffffffffffffffffff1673ffffffffffffffffffffffffffffffffffffffff16611a019092919063ffffffff16565b6001808190555050565b6000600554905090565b6000600660008373ffffffffffffffffffffffffffffffffffffffff1673ffffffffffffffffffffffffffffffffffffffff168152602001908152602001600020549050919050565b600260015403610c42576040517f08c379a0000000000000000000000000000000000000000000000000000000008152600401610c3990612781565b60405180910390fd5b600260018190555081600115156004600083815260200190815260200160002060000160009054906101000a900460ff16151514610c7f57600080fd5b600015156004600083815260200190815260200160002060080160009054906101000a900460ff16151514610cb357600080fd5b600060046000858152602001908152602001600020905060008160000160019054906101000a900473ffffffffffffffffffffffffffffffffffffffff1673ffffffffffffffffffffffffffffffffffffffff16610d0f6119e3565b73ffffffffffffffffffffffffffffffffffffffff161490506000610d326111d1565b73ffffffffffffffffffffffffffffffffffffffff16610d506119e3565b73ffffffffffffffffffffffffffffffffffffffff161490508180610d725750805b610db1576040517f08c379a0000000000000000000000000000000000000000000000000000000008152600401610da8906128cb565b60405180910390fd5b6000610eab84604051806101400160405290816000820160009054906101000a900460ff161515151581526020016000820160019054906101000a900473ffffffffffffffffffffffffffffffffffffffff1673ffffffffffffffffffffffffffffffffffffffff1673ffffffffffffffffffffffffffffffffffffffff168152602001600182015481526020016002820154815260200160038201548152602001600482015481526020016005820160009054906101000a900460ff1615151515815260200160068201548152602001600782015481526020016008820160009054906101000a900460ff161515151581525050611a87565b905085811015610ef0576040517f08c379a0000000000000000000000000000000000000000000000000000000008152600401610ee79061295d565b60405180910390fd5b610f078685600701546119eb90919063ffffffff16565b846007018190555060008460000160019054906101000a900473ffffffffffffffffffffffffffffffffffffffff169050610f4d87600554611baf90919063ffffffff16565b600581905550610fa08188600260009054906101000a900473ffffffffffffffffffffffffffffffffffffffff1673ffffffffffffffffffffffffffffffffffffffff16611a019092919063ffffffff16565b505050505050600180819055505050565b610fb96119e3565b73ffffffffffffffffffffffffffffffffffffffff16610fd76111d1565b73ffffffffffffffffffffffffffffffffffffffff161461102d576040517f08c379a000000000000000000000000000000000000000000000000000000000815260040161102490612449565b60405180910390fd5b6110376000611bc5565b565b611041611f3a565b6004600061109a846001600660008873ffffffffffffffffffffffffffffffffffffffff1673ffffffffffffffffffffffffffffffffffffffff1681526020019081526020016000205461109591906129ac565b61119e565b8152602001908152602001600020604051806101400160405290816000820160009054906101000a900460ff161515151581526020016000820160019054906101000a900473ffffffffffffffffffffffffffffffffffffffff1673ffffffffffffffffffffffffffffffffffffffff1673ffffffffffffffffffffffffffffffffffffffff168152602001600182015481526020016002820154815260200160038201548152602001600482015481526020016005820160009054906101000a900460ff1615151515815260200160068201548152602001600782015481526020016008820160009054906101000a900460ff1615151515815250509050919050565b600082826040516020016111b3929190612a49565b60405160208183030381529060405280519060200120905092915050565b60008060009054906101000a900473ffffffffffffffffffffffffffffffffffffffff16905090565b60006112ac600554600260009054906101000a900473ffffffffffffffffffffffffffffffffffffffff1673ffffffffffffffffffffffffffffffffffffffff166370a08231306040518263ffffffff1660e01b815260040161125d9190612155565b602060405180830381865afa15801561127a573d6000803e3d6000fd5b505050506040513d601f19601f8201168201806040525081019061129e919061247e565b611baf90919063ffffffff16565b905090565b6112b9611f3a565b60046000838152602001908152602001600020604051806101400160405290816000820160009054906101000a900460ff161515151581526020016000820160019054906101000a900473ffffffffffffffffffffffffffffffffffffffff1673ffffffffffffffffffffffffffffffffffffffff1673ffffffffffffffffffffffffffffffffffffffff168152602001600182015481526020016002820154815260200160038201548152602001600482015481526020016005820160009054906101000a900460ff1615151515815260200160068201548152602001600782015481526020016008820160009054906101000a900460ff1615151515815250509050919050565b6113ca6119e3565b73ffffffffffffffffffffffffffffffffffffffff166113e86111d1565b73ffffffffffffffffffffffffffffffffffffffff161461143e576040517f08c379a000000000000000000000000000000000000000000000000000000000815260040161143590612449565b60405180910390fd5b80600115156004600083815260200190815260200160002060000160009054906101000a900460ff1615151461147357600080fd5b600015156004600083815260200190815260200160002060080160009054906101000a900460ff161515146114a757600080fd5b6000600460008481526020019081526020016000209050600115158160050160009054906101000a900460ff16151514611516576040517f08c379a000000000000000000000000000000000000000000000000000000000815260040161150d90612ae7565b60405180910390fd5b600061161082604051806101400160405290816000820160009054906101000a900460ff161515151581526020016000820160019054906101000a900473ffffffffffffffffffffffffffffffffffffffff1673ffffffffffffffffffffffffffffffffffffffff1673ffffffffffffffffffffffffffffffffffffffff168152602001600182015481526020016002820154815260200160038201548152602001600482015481526020016005820160009054906101000a900460ff1615151515815260200160068201548152602001600782015481526020016008820160009054906101000a900460ff161515151581525050611a87565b90506000811115611626576116258482610bfd565b5b600061164383600701548460060154611baf90919063ffffffff16565b905061165a81600554611baf90919063ffffffff16565b60058190555060018360080160006101000a81548160ff0219169083151502179055505050505050565b600081600115156004600083815260200190815260200160002060000160009054906101000a900460ff161515146116bb57600080fd5b600015156004600083815260200190815260200160002060080160009054906101000a900460ff161515146116ef57600080fd5b60006004600085815260200190815260200160002090506117fe81604051806101400160405290816000820160009054906101000a900460ff161515151581526020016000820160019054906101000a900473ffffffffffffffffffffffffffffffffffffffff1673ffffffffffffffffffffffffffffffffffffffff1673ffffffffffffffffffffffffffffffffffffffff168152602001600182015481526020016002820154815260200160038201548152602001600482015481526020016005820160009054906101000a900460ff1615151515815260200160068201548152602001600782015481526020016008820160009054906101000a900460ff161515151581525050611a87565b92505050919050565b61180f6119e3565b73ffffffffffffffffffffffffffffffffffffffff1661182d6111d1565b73ffffffffffffffffffffffffffffffffffffffff1614611883576040517f08c379a000000000000000000000000000000000000000000000000000000000815260040161187a90612449565b60405180910390fd5b600073ffffffffffffffffffffffffffffffffffffffff168173ffffffffffffffffffffffffffffffffffffffff16036118f2576040517f08c379a00000000000000000000000000000000000000000000000000000000081526004016118e990612b79565b60405180910390fd5b6118fb81611bc5565b50565b611906611f3a565b611918611913848461119e565b6112b1565b905092915050565b600061196b82600660008573ffffffffffffffffffffffffffffffffffffffff1673ffffffffffffffffffffffffffffffffffffffff1681526020019081526020016000205461119e565b9050919050565b600061197c6104c4565b82106119bd576040517f08c379a00000000000000000000000000000000000000000000000000000000081526004016119b490612c0b565b60405180910390fd5b600382815481106119d1576119d0612c2b565b5b90600052602060002001549050919050565b600033905090565b600081836119f99190612c5a565b905092915050565b611a828363a9059cbb60e01b8484604051602401611a20929190612cb0565b604051602081830303815290604052907bffffffffffffffffffffffffffffffffffffffffffffffffffffffff19166020820180517bffffffffffffffffffffffffffffffffffffffffffffffffffffffff8381831617835250505050611c89565b505050565b600080611a92611d50565b90508260400151811080611aaf5750600115158361012001511515145b15611abe576000915050611baa565b611ad9836080015184606001516119eb90919063ffffffff16565b8110611b0357611afb8361010001518460e00151611baf90919063ffffffff16565b915050611baa565b6000611b1c846060015183611baf90919063ffffffff16565b905060008460a0015190506000611b3c8284611d5890919063ffffffff16565b90506000611b538383611d6e90919063ffffffff16565b90506000611b848860800151611b76848b60e00151611d6e90919063ffffffff16565b611d5890919063ffffffff16565b9050611b9e88610100015182611baf90919063ffffffff16565b90508096505050505050505b919050565b60008183611bbd91906129ac565b905092915050565b60008060009054906101000a900473ffffffffffffffffffffffffffffffffffffffff169050816000806101000a81548173ffffffffffffffffffffffffffffffffffffffff021916908373ffffffffffffffffffffffffffffffffffffffff1602179055508173ffffffffffffffffffffffffffffffffffffffff168173ffffffffffffffffffffffffffffffffffffffff167f8be0079c531659141344cd1fd0a4f28419497f9722a3daafe3b4186f6b6457e060405160405180910390a35050565b6000611ceb826040518060400160405280602081526020017f5361666545524332303a206c6f772d6c6576656c2063616c6c206661696c65648152508573ffffffffffffffffffffffffffffffffffffffff16611d849092919063ffffffff16565b9050600081511115611d4b5780806020019051810190611d0b9190612cee565b611d4a576040517f08c379a0000000000000000000000000000000000000000000000000000000008152600401611d4190612d8d565b60405180910390fd5b5b505050565b600042905090565b60008183611d669190612ddc565b905092915050565b60008183611d7c9190612e0d565b905092915050565b6060611d938484600085611d9c565b90509392505050565b606082471015611de1576040517f08c379a0000000000000000000000000000000000000000000000000000000008152600401611dd890612ed9565b60405180910390fd5b611dea85611eb0565b611e29576040517f08c379a0000000000000000000000000000000000000000000000000000000008152600401611e2090612f45565b60405180910390fd5b6000808673ffffffffffffffffffffffffffffffffffffffff168587604051611e529190612fdf565b60006040518083038185875af1925050503d8060008114611e8f576040519150601f19603f3d011682016040523d82523d6000602084013e611e94565b606091505b5091509150611ea4828286611ed3565b92505050949350505050565b6000808273ffffffffffffffffffffffffffffffffffffffff163b119050919050565b60608315611ee357829050611f33565b600083511115611ef65782518084602001fd5b816040517f08c379a0000000000000000000000000000000000000000000000000000000008152600401611f2a919061304b565b60405180910390fd5b9392505050565b604051806101400160405280600015158152602001600073ffffffffffffffffffffffffffffffffffffffff1681526020016000815260200160008152602001600081526020016000815260200160001515815260200160008152602001600081526020016000151581525090565b6000819050919050565b611fbc81611fa9565b82525050565b6000602082019050611fd76000830184611fb3565b92915050565b600080fd5b600073ffffffffffffffffffffffffffffffffffffffff82169050919050565b600061200d82611fe2565b9050919050565b61201d81612002565b811461202857600080fd5b50565b60008135905061203a81612014565b92915050565b61204981611fa9565b811461205457600080fd5b50565b60008135905061206681612040565b92915050565b60008115159050919050565b6120818161206c565b811461208c57600080fd5b50565b60008135905061209e81612078565b92915050565b600080600080600080600060e0888a0312156120c3576120c2611fdd565b5b60006120d18a828b0161202b565b97505060206120e28a828b01612057565b96505060406120f38a828b01612057565b95505060606121048a828b01612057565b94505060806121158a828b01612057565b93505060a06121268a828b0161208f565b92505060c06121378a828b01612057565b91505092959891949750929550565b61214f81612002565b82525050565b600060208201905061216a6000830184612146565b92915050565b60006020828403121561218657612185611fdd565b5b600061219484828501612057565b91505092915050565b6000602082840312156121b3576121b2611fdd565b5b60006121c18482850161202b565b91505092915050565b6000819050919050565b6121dd816121ca565b81146121e857600080fd5b50565b6000813590506121fa816121d4565b92915050565b6000806040838503121561221757612216611fdd565b5b6000612225858286016121eb565b925050602061223685828601612057565b9150509250929050565b6122498161206c565b82525050565b61225881612002565b82525050565b61226781611fa9565b82525050565b610140820160008201516122846000850182612240565b506020820151612297602085018261224f565b5060408201516122aa604085018261225e565b5060608201516122bd606085018261225e565b5060808201516122d0608085018261225e565b5060a08201516122e360a085018261225e565b5060c08201516122f660c0850182612240565b5060e082015161230960e085018261225e565b5061010082015161231e61010085018261225e565b50610120820151612333610120850182612240565b50505050565b60006101408201905061234f600083018461226d565b92915050565b6000806040838503121561236c5761236b611fdd565b5b600061237a8582860161202b565b925050602061238b85828601612057565b9150509250929050565b61239e816121ca565b82525050565b60006020820190506123b96000830184612395565b92915050565b6000602082840312156123d5576123d4611fdd565b5b60006123e3848285016121eb565b91505092915050565b600082825260208201905092915050565b7f4f776e61626c653a2063616c6c6572206973206e6f7420746865206f776e6572600082015250565b60006124336020836123ec565b915061243e826123fd565b602082019050919050565b6000602082019050818103600083015261246281612426565b9050919050565b60008151905061247881612040565b92915050565b60006020828403121561249457612493611fdd565b5b60006124a284828501612469565b91505092915050565b7f546f6b656e56657374696e673a2063616e6e6f7420637265617465207665737460008201527f696e67207363686564756c652062656361757365206e6f74207375666669636960208201527f656e7420746f6b656e7300000000000000000000000000000000000000000000604082015250565b600061252d604a836123ec565b9150612538826124ab565b606082019050919050565b6000602082019050818103600083015261255c81612520565b9050919050565b7f546f6b656e56657374696e673a206475726174696f6e206d757374206265203e60008201527f2030000000000000000000000000000000000000000000000000000000000000602082015250565b60006125bf6022836123ec565b91506125ca82612563565b604082019050919050565b600060208201905081810360008301526125ee816125b2565b9050919050565b7f546f6b656e56657374696e673a20616d6f756e74206d757374206265203e2030600082015250565b600061262b6020836123ec565b9150612636826125f5565b602082019050919050565b6000602082019050818103600083015261265a8161261e565b9050919050565b7f546f6b656e56657374696e673a20736c696365506572696f645365636f6e647360008201527f206d757374206265203e3d203100000000000000000000000000000000000000602082015250565b60006126bd602d836123ec565b91506126c882612661565b604082019050919050565b600060208201905081810360008301526126ec816126b0565b9050919050565b600081519050612702816121d4565b92915050565b60006020828403121561271e5761271d611fdd565b5b600061272c848285016126f3565b91505092915050565b7f5265656e7472616e637947756172643a207265656e7472616e742063616c6c00600082015250565b600061276b601f836123ec565b915061277682612735565b602082019050919050565b6000602082019050818103600083015261279a8161275e565b9050919050565b7f546f6b656e56657374696e673a206e6f7420656e6f756768207769746864726160008201527f7761626c652066756e6473000000000000000000000000000000000000000000602082015250565b60006127fd602b836123ec565b9150612808826127a1565b604082019050919050565b6000602082019050818103600083015261282c816127f0565b9050919050565b7f546f6b656e56657374696e673a206f6e6c792062656e6566696369617279206160008201527f6e64206f776e65722063616e2072656c656173652076657374656420746f6b6560208201527f6e73000000000000000000000000000000000000000000000000000000000000604082015250565b60006128b56042836123ec565b91506128c082612833565b606082019050919050565b600060208201905081810360008301526128e4816128a8565b9050919050565b7f546f6b656e56657374696e673a2063616e6e6f742072656c6561736520746f6b60008201527f656e732c206e6f7420656e6f7567682076657374656420746f6b656e73000000602082015250565b6000612947603d836123ec565b9150612952826128eb565b604082019050919050565b600060208201905081810360008301526129768161293a565b9050919050565b7f4e487b7100000000000000000000000000000000000000000000000000000000600052601160045260246000fd5b60006129b782611fa9565b91506129c283611fa9565b9250828210156129d5576129d461297d565b5b828203905092915050565b60008160601b9050919050565b60006129f8826129e0565b9050919050565b6000612a0a826129ed565b9050919050565b612a22612a1d82612002565b6129ff565b82525050565b6000819050919050565b612a43612a3e82611fa9565b612a28565b82525050565b6000612a558285612a11565b601482019150612a658284612a32565b6020820191508190509392505050565b7f546f6b656e56657374696e673a2076657374696e67206973206e6f742072657660008201527f6f6361626c650000000000000000000000000000000000000000000000000000602082015250565b6000612ad16026836123ec565b9150612adc82612a75565b604082019050919050565b60006020820190508181036000830152612b0081612ac4565b9050919050565b7f4f776e61626c653a206e6577206f776e657220697320746865207a65726f206160008201527f6464726573730000000000000000000000000000000000000000000000000000602082015250565b6000612b636026836123ec565b9150612b6e82612b07565b604082019050919050565b60006020820190508181036000830152612b9281612b56565b9050919050565b7f546f6b656e56657374696e673a20696e646578206f7574206f6620626f756e6460008201527f7300000000000000000000000000000000000000000000000000000000000000602082015250565b6000612bf56021836123ec565b9150612c0082612b99565b604082019050919050565b60006020820190508181036000830152612c2481612be8565b9050919050565b7f4e487b7100000000000000000000000000000000000000000000000000000000600052603260045260246000fd5b6000612c6582611fa9565b9150612c7083611fa9565b9250827fffffffffffffffffffffffffffffffffffffffffffffffffffffffffffffffff03821115612ca557612ca461297d565b5b828201905092915050565b6000604082019050612cc56000830185612146565b612cd26020830184611fb3565b9392505050565b600081519050612ce881612078565b92915050565b600060208284031215612d0457612d03611fdd565b5b6000612d1284828501612cd9565b91505092915050565b7f5361666545524332303a204552433230206f7065726174696f6e20646964206e60008201527f6f74207375636365656400000000000000000000000000000000000000000000602082015250565b6000612d77602a836123ec565b9150612d8282612d1b565b604082019050919050565b60006020820190508181036000830152612da681612d6a565b9050919050565b7f4e487b7100000000000000000000000000000000000000000000000000000000600052601260045260246000fd5b6000612de782611fa9565b9150612df283611fa9565b925082612e0257612e01612dad565b5b828204905092915050565b6000612e1882611fa9565b9150612e2383611fa9565b9250817fffffffffffffffffffffffffffffffffffffffffffffffffffffffffffffffff0483118215151615612e5c57612e5b61297d565b5b828202905092915050565b7f416464726573733a20696e73756666696369656e742062616c616e636520666f60008201527f722063616c6c0000000000000000000000000000000000000000000000000000602082015250565b6000612ec36026836123ec565b9150612ece82612e67565b604082019050919050565b60006020820190508181036000830152612ef281612eb6565b9050919050565b7f416464726573733a2063616c6c20746f206e6f6e2d636f6e7472616374000000600082015250565b6000612f2f601d836123ec565b9150612f3a82612ef9565b602082019050919050565b60006020820190508181036000830152612f5e81612f22565b9050919050565b600081519050919050565b600081905092915050565b60005b83811015612f99578082015181840152602081019050612f7e565b83811115612fa8576000848401525b50505050565b6000612fb982612f65565b612fc38185612f70565b9350612fd3818560208601612f7b565b80840191505092915050565b6000612feb8284612fae565b915081905092915050565b600081519050919050565b6000601f19601f8301169050919050565b600061301d82612ff6565b61302781856123ec565b9350613037818560208601612f7b565b61304081613001565b840191505092915050565b600060208201905081810360008301526130658184613012565b90509291505056fea2646970667358221220bd455ca4e406736bf35237db4be6306026464850f80a8329c2b9f54520ac7a5664736f6c634300080d0033",
  "immutableReferences": {},
  "source": "// SPDX-License-Identifier: Apache-2.0\npragma solidity 0.8.13;\n\n// OpenZeppelin Contracts (last updated v4.5.0) (token/ERC20/IERC20.sol)\n/**\n * @dev Interface of the ERC20 standard as defined in the EIP.\n */\ninterface IERC20 {\n    /**\n     * @dev Returns the amount of tokens in existence.\n     */\n    function totalSupply() external view returns (uint256);\n\n    /**\n     * @dev Returns the amount of tokens owned by `account`.\n     */\n    function balanceOf(address account) external view returns (uint256);\n\n    /**\n     * @dev Moves `amount` tokens from the caller's account to `to`.\n     *\n     * Returns a boolean value indicating whether the operation succeeded.\n     *\n     * Emits a {Transfer} event.\n     */\n    function transfer(address to, uint256 amount) external returns (bool);\n\n    /**\n     * @dev Returns the remaining number of tokens that `spender` will be\n     * allowed to spend on behalf of `owner` through {transferFrom}. This is\n     * zero by default.\n     *\n     * This value changes when {approve} or {transferFrom} are called.\n     */\n    function allowance(address owner, address spender) external view returns (uint256);\n\n    /**\n     * @dev Sets `amount` as the allowance of `spender` over the caller's tokens.\n     *\n     * Returns a boolean value indicating whether the operation succeeded.\n     *\n     * IMPORTANT: Beware that changing an allowance with this method brings the risk\n     * that someone may use both the old and the new allowance by unfortunate\n     * transaction ordering. One possible solution to mitigate this race\n     * condition is to first reduce the spender's allowance to 0 and set the\n     * desired value afterwards:\n     * https://github.com/ethereum/EIPs/issues/20#issuecomment-263524729\n     *\n     * Emits an {Approval} event.\n     */\n    function approve(address spender, uint256 amount) external returns (bool);\n\n    /**\n     * @dev Moves `amount` tokens from `from` to `to` using the\n     * allowance mechanism. `amount` is then deducted from the caller's\n     * allowance.\n     *\n     * Returns a boolean value indicating whether the operation succeeded.\n     *\n     * Emits a {Transfer} event.\n     */\n    function transferFrom(\n        address from,\n        address to,\n        uint256 amount\n    ) external returns (bool);\n\n    /**\n     * @dev Emitted when `value` tokens are moved from one account (`from`) to\n     * another (`to`).\n     *\n     * Note that `value` may be zero.\n     */\n    event Transfer(address indexed from, address indexed to, uint256 value);\n\n    /**\n     * @dev Emitted when the allowance of a `spender` for an `owner` is set by\n     * a call to {approve}. `value` is the new allowance.\n     */\n    event Approval(address indexed owner, address indexed spender, uint256 value);\n}\n\n/**\n * @dev Collection of functions related to the address type\n */\nlibrary Address {\n    /**\n     * @dev Returns true if `account` is a contract.\n     *\n     * [IMPORTANT]\n     * ====\n     * It is unsafe to assume that an address for which this function returns\n     * false is an externally-owned account (EOA) and not a contract.\n     *\n     * Among others, `isContract` will return false for the following\n     * types of addresses:\n     *\n     *  - an externally-owned account\n     *  - a contract in construction\n     *  - an address where a contract will be created\n     *  - an address where a contract lived, but was destroyed\n     * ====\n     *\n     * [IMPORTANT]\n     * ====\n     * You shouldn't rely on `isContract` to protect against flash loan attacks!\n     *\n     * Preventing calls from contracts is highly discouraged. It breaks composability, breaks support for smart wallets\n     * like Gnosis Safe, and does not provide security since it can be circumvented by calling from a contract\n     * constructor.\n     * ====\n     */\n    function isContract(address account) internal view returns (bool) {\n        // This method relies on extcodesize/address.code.length, which returns 0\n        // for contracts in construction, since the code is only stored at the end\n        // of the constructor execution.\n\n        return account.code.length > 0;\n    }\n\n    /**\n     * @dev Replacement for Solidity's `transfer`: sends `amount` wei to\n     * `recipient`, forwarding all available gas and reverting on errors.\n     *\n     * https://eips.ethereum.org/EIPS/eip-1884[EIP1884] increases the gas cost\n     * of certain opcodes, possibly making contracts go over the 2300 gas limit\n     * imposed by `transfer`, making them unable to receive funds via\n     * `transfer`. {sendValue} removes this limitation.\n     *\n     * https://diligence.consensys.net/posts/2019/09/stop-using-soliditys-transfer-now/[Learn more].\n     *\n     * IMPORTANT: because control is transferred to `recipient`, care must be\n     * taken to not create reentrancy vulnerabilities. Consider using\n     * {ReentrancyGuard} or the\n     * https://solidity.readthedocs.io/en/v0.5.11/security-considerations.html#use-the-checks-effects-interactions-pattern[checks-effects-interactions pattern].\n     */\n    function sendValue(address payable recipient, uint256 amount) internal {\n        require(address(this).balance >= amount, \"Address: insufficient balance\");\n\n        (bool success, ) = recipient.call{value: amount}(\"\");\n        require(success, \"Address: unable to send value, recipient may have reverted\");\n    }\n\n    /**\n     * @dev Performs a Solidity function call using a low level `call`. A\n     * plain `call` is an unsafe replacement for a function call: use this\n     * function instead.\n     *\n     * If `target` reverts with a revert reason, it is bubbled up by this\n     * function (like regular Solidity function calls).\n     *\n     * Returns the raw returned data. To convert to the expected return value,\n     * use https://solidity.readthedocs.io/en/latest/units-and-global-variables.html?highlight=abi.decode#abi-encoding-and-decoding-functions[`abi.decode`].\n     *\n     * Requirements:\n     *\n     * - `target` must be a contract.\n     * - calling `target` with `data` must not revert.\n     *\n     * _Available since v3.1._\n     */\n    function functionCall(address target, bytes memory data) internal returns (bytes memory) {\n        return functionCall(target, data, \"Address: low-level call failed\");\n    }\n\n    /**\n     * @dev Same as {xref-Address-functionCall-address-bytes-}[`functionCall`], but with\n     * `errorMessage` as a fallback revert reason when `target` reverts.\n     *\n     * _Available since v3.1._\n     */\n    function functionCall(\n        address target,\n        bytes memory data,\n        string memory errorMessage\n    ) internal returns (bytes memory) {\n        return functionCallWithValue(target, data, 0, errorMessage);\n    }\n\n    /**\n     * @dev Same as {xref-Address-functionCall-address-bytes-}[`functionCall`],\n     * but also transferring `value` wei to `target`.\n     *\n     * Requirements:\n     *\n     * - the calling contract must have an ETH balance of at least `value`.\n     * - the called Solidity function must be `payable`.\n     *\n     * _Available since v3.1._\n     */\n    function functionCallWithValue(\n        address target,\n        bytes memory data,\n        uint256 value\n    ) internal returns (bytes memory) {\n        return functionCallWithValue(target, data, value, \"Address: low-level call with value failed\");\n    }\n\n    /**\n     * @dev Same as {xref-Address-functionCallWithValue-address-bytes-uint256-}[`functionCallWithValue`], but\n     * with `errorMessage` as a fallback revert reason when `target` reverts.\n     *\n     * _Available since v3.1._\n     */\n    function functionCallWithValue(\n        address target,\n        bytes memory data,\n        uint256 value,\n        string memory errorMessage\n    ) internal returns (bytes memory) {\n        require(address(this).balance >= value, \"Address: insufficient balance for call\");\n        require(isContract(target), \"Address: call to non-contract\");\n\n        (bool success, bytes memory returndata) = target.call{value: value}(data);\n        return verifyCallResult(success, returndata, errorMessage);\n    }\n\n    /**\n     * @dev Same as {xref-Address-functionCall-address-bytes-}[`functionCall`],\n     * but performing a static call.\n     *\n     * _Available since v3.3._\n     */\n    function functionStaticCall(address target, bytes memory data) internal view returns (bytes memory) {\n        return functionStaticCall(target, data, \"Address: low-level static call failed\");\n    }\n\n    /**\n     * @dev Same as {xref-Address-functionCall-address-bytes-string-}[`functionCall`],\n     * but performing a static call.\n     *\n     * _Available since v3.3._\n     */\n    function functionStaticCall(\n        address target,\n        bytes memory data,\n        string memory errorMessage\n    ) internal view returns (bytes memory) {\n        require(isContract(target), \"Address: static call to non-contract\");\n\n        (bool success, bytes memory returndata) = target.staticcall(data);\n        return verifyCallResult(success, returndata, errorMessage);\n    }\n\n    /**\n     * @dev Same as {xref-Address-functionCall-address-bytes-}[`functionCall`],\n     * but performing a delegate call.\n     *\n     * _Available since v3.4._\n     */\n    function functionDelegateCall(address target, bytes memory data) internal returns (bytes memory) {\n        return functionDelegateCall(target, data, \"Address: low-level delegate call failed\");\n    }\n\n    /**\n     * @dev Same as {xref-Address-functionCall-address-bytes-string-}[`functionCall`],\n     * but performing a delegate call.\n     *\n     * _Available since v3.4._\n     */\n    function functionDelegateCall(\n        address target,\n        bytes memory data,\n        string memory errorMessage\n    ) internal returns (bytes memory) {\n        require(isContract(target), \"Address: delegate call to non-contract\");\n\n        (bool success, bytes memory returndata) = target.delegatecall(data);\n        return verifyCallResult(success, returndata, errorMessage);\n    }\n\n    /**\n     * @dev Tool to verifies that a low level call was successful, and revert if it wasn't, either by bubbling the\n     * revert reason using the provided one.\n     *\n     * _Available since v4.3._\n     */\n    function verifyCallResult(\n        bool success,\n        bytes memory returndata,\n        string memory errorMessage\n    ) internal pure returns (bytes memory) {\n        if (success) {\n            return returndata;\n        } else {\n            // Look for revert reason and bubble it up if present\n            if (returndata.length > 0) {\n                // The easiest way to bubble the revert reason is using memory via assembly\n\n                assembly {\n                    let returndata_size := mload(returndata)\n                    revert(add(32, returndata), returndata_size)\n                }\n            } else {\n                revert(errorMessage);\n            }\n        }\n    }\n}\n\n/**\n * @title SafeERC20\n * @dev Wrappers around ERC20 operations that throw on failure (when the token\n * contract returns false). Tokens that return no value (and instead revert or\n * throw on failure) are also supported, non-reverting calls are assumed to be\n * successful.\n * To use this library you can add a `using SafeERC20 for IERC20;` statement to your contract,\n * which allows you to call the safe operations as `token.safeTransfer(...)`, etc.\n */\nlibrary SafeERC20 {\n    using Address for address;\n\n    function safeTransfer(\n        IERC20 token,\n        address to,\n        uint256 value\n    ) internal {\n        _callOptionalReturn(token, abi.encodeWithSelector(token.transfer.selector, to, value));\n    }\n\n    function safeTransferFrom(\n        IERC20 token,\n        address from,\n        address to,\n        uint256 value\n    ) internal {\n        _callOptionalReturn(token, abi.encodeWithSelector(token.transferFrom.selector, from, to, value));\n    }\n\n    /**\n     * @dev Deprecated. This function has issues similar to the ones found in\n     * {IERC20-approve}, and its usage is discouraged.\n     *\n     * Whenever possible, use {safeIncreaseAllowance} and\n     * {safeDecreaseAllowance} instead.\n     */\n    function safeApprove(\n        IERC20 token,\n        address spender,\n        uint256 value\n    ) internal {\n        // safeApprove should only be called when setting an initial allowance,\n        // or when resetting it to zero. To increase and decrease it, use\n        // 'safeIncreaseAllowance' and 'safeDecreaseAllowance'\n        require(\n            (value == 0) || (token.allowance(address(this), spender) == 0),\n            \"SafeERC20: approve from non-zero to non-zero allowance\"\n        );\n        _callOptionalReturn(token, abi.encodeWithSelector(token.approve.selector, spender, value));\n    }\n\n    function safeIncreaseAllowance(\n        IERC20 token,\n        address spender,\n        uint256 value\n    ) internal {\n        uint256 newAllowance = token.allowance(address(this), spender) + value;\n        _callOptionalReturn(token, abi.encodeWithSelector(token.approve.selector, spender, newAllowance));\n    }\n\n    function safeDecreaseAllowance(\n        IERC20 token,\n        address spender,\n        uint256 value\n    ) internal {\n        unchecked {\n            uint256 oldAllowance = token.allowance(address(this), spender);\n            require(oldAllowance >= value, \"SafeERC20: decreased allowance below zero\");\n            uint256 newAllowance = oldAllowance - value;\n            _callOptionalReturn(token, abi.encodeWithSelector(token.approve.selector, spender, newAllowance));\n        }\n    }\n\n    /**\n     * @dev Imitates a Solidity high-level call (i.e. a regular function call to a contract), relaxing the requirement\n     * on the return value: the return value is optional (but if data is returned, it must not be false).\n     * @param token The token targeted by the call.\n     * @param data The call data (encoded using abi.encode or one of its variants).\n     */\n    function _callOptionalReturn(IERC20 token, bytes memory data) private {\n        // We need to perform a low level call here, to bypass Solidity's return data size checking mechanism, since\n        // we're implementing it ourselves. We use {Address.functionCall} to perform this call, which verifies that\n        // the target address contains contract code and also asserts for success in the low-level call.\n\n        bytes memory returndata = address(token).functionCall(data, \"SafeERC20: low-level call failed\");\n        if (returndata.length > 0) {\n            // Return data is optional\n            require(abi.decode(returndata, (bool)), \"SafeERC20: ERC20 operation did not succeed\");\n        }\n    }\n}\n\n/**\n * @dev Contract module that helps prevent reentrant calls to a function.\n *\n * Inheriting from `ReentrancyGuard` will make the {nonReentrant} modifier\n * available, which can be applied to functions to make sure there are no nested\n * (reentrant) calls to them.\n *\n * Note that because there is a single `nonReentrant` guard, functions marked as\n * `nonReentrant` may not call one another. This can be worked around by making\n * those functions `private`, and then adding `external` `nonReentrant` entry\n * points to them.\n *\n * TIP: If you would like to learn more about reentrancy and alternative ways\n * to protect against it, check out our blog post\n * https://blog.openzeppelin.com/reentrancy-after-istanbul/[Reentrancy After Istanbul].\n */\nabstract contract ReentrancyGuard {\n    // Booleans are more expensive than uint256 or any type that takes up a full\n    // word because each write operation emits an extra SLOAD to first read the\n    // slot's contents, replace the bits taken up by the boolean, and then write\n    // back. This is the compiler's defense against contract upgrades and\n    // pointer aliasing, and it cannot be disabled.\n\n    // The values being non-zero value makes deployment a bit more expensive,\n    // but in exchange the refund on every call to nonReentrant will be lower in\n    // amount. Since refunds are capped to a percentage of the total\n    // transaction's gas, it is best to keep them low in cases like this one, to\n    // increase the likelihood of the full refund coming into effect.\n    uint256 private constant _NOT_ENTERED = 1;\n    uint256 private constant _ENTERED = 2;\n\n    uint256 private _status;\n\n    constructor() {\n        _status = _NOT_ENTERED;\n    }\n\n    /**\n     * @dev Prevents a contract from calling itself, directly or indirectly.\n     * Calling a `nonReentrant` function from another `nonReentrant`\n     * function is not supported. It is possible to prevent this from happening\n     * by making the `nonReentrant` function external, and making it call a\n     * `private` function that does the actual work.\n     */\n    modifier nonReentrant() {\n        // On the first call to nonReentrant, _notEntered will be true\n        require(_status != _ENTERED, \"ReentrancyGuard: reentrant call\");\n\n        // Any calls to nonReentrant after this point will fail\n        _status = _ENTERED;\n\n        _;\n\n        // By storing the original value once again, a refund is triggered (see\n        // https://eips.ethereum.org/EIPS/eip-2200)\n        _status = _NOT_ENTERED;\n    }\n}\n\n/**\n * @dev Provides information about the current execution context, including the\n * sender of the transaction and its data. While these are generally available\n * via msg.sender and msg.data, they should not be accessed in such a direct\n * manner, since when dealing with meta-transactions the account sending and\n * paying for execution may not be the actual sender (as far as an application\n * is concerned).\n *\n * This contract is only required for intermediate, library-like contracts.\n */\nabstract contract Context {\n    function _msgSender() internal view virtual returns (address) {\n        return msg.sender;\n    }\n\n    function _msgData() internal view virtual returns (bytes calldata) {\n        return msg.data;\n    }\n}\n\n/**\n * @dev Contract module which provides a basic access control mechanism, where\n * there is an account (an owner) that can be granted exclusive access to\n * specific functions.\n *\n * By default, the owner account will be the one that deploys the contract. This\n * can later be changed with {transferOwnership}.\n *\n * This module is used through inheritance. It will make available the modifier\n * `onlyOwner`, which can be applied to your functions to restrict their use to\n * the owner.\n */\nabstract contract Ownable is Context {\n    address private _owner;\n\n    event OwnershipTransferred(address indexed previousOwner, address indexed newOwner);\n\n    /**\n     * @dev Initializes the contract setting the deployer as the initial owner.\n     */\n    constructor() {\n        _transferOwnership(_msgSender());\n    }\n\n    /**\n     * @dev Returns the address of the current owner.\n     */\n    function owner() public view virtual returns (address) {\n        return _owner;\n    }\n\n    /**\n     * @dev Throws if called by any account other than the owner.\n     */\n    modifier onlyOwner() {\n        require(owner() == _msgSender(), \"Ownable: caller is not the owner\");\n        _;\n    }\n\n    /**\n     * @dev Leaves the contract without owner. It will not be possible to call\n     * `onlyOwner` functions anymore. Can only be called by the current owner.\n     *\n     * NOTE: Renouncing ownership will leave the contract without an owner,\n     * thereby removing any functionality that is only available to the owner.\n     */\n    function renounceOwnership() public virtual onlyOwner {\n        _transferOwnership(address(0));\n    }\n\n    /**\n     * @dev Transfers ownership of the contract to a new account (`newOwner`).\n     * Can only be called by the current owner.\n     */\n    function transferOwnership(address newOwner) public virtual onlyOwner {\n        require(newOwner != address(0), \"Ownable: new owner is the zero address\");\n        _transferOwnership(newOwner);\n    }\n\n    /**\n     * @dev Transfers ownership of the contract to a new account (`newOwner`).\n     * Internal function without access restriction.\n     */\n    function _transferOwnership(address newOwner) internal virtual {\n        address oldOwner = _owner;\n        _owner = newOwner;\n        emit OwnershipTransferred(oldOwner, newOwner);\n    }\n}\n\n// CAUTION\n// This version of SafeMath should only be used with Solidity 0.8 or later,\n// because it relies on the compiler's built in overflow checks.\n\n/**\n * @dev Wrappers over Solidity's arithmetic operations.\n *\n * NOTE: `SafeMath` is generally not needed starting with Solidity 0.8, since the compiler\n * now has built in overflow checking.\n */\nlibrary SafeMath {\n    /**\n     * @dev Returns the addition of two unsigned integers, with an overflow flag.\n     *\n     * _Available since v3.4._\n     */\n    function tryAdd(uint256 a, uint256 b) internal pure returns (bool, uint256) {\n        unchecked {\n            uint256 c = a + b;\n            if (c < a) return (false, 0);\n            return (true, c);\n        }\n    }\n\n    /**\n     * @dev Returns the substraction of two unsigned integers, with an overflow flag.\n     *\n     * _Available since v3.4._\n     */\n    function trySub(uint256 a, uint256 b) internal pure returns (bool, uint256) {\n        unchecked {\n            if (b > a) return (false, 0);\n            return (true, a - b);\n        }\n    }\n\n    /**\n     * @dev Returns the multiplication of two unsigned integers, with an overflow flag.\n     *\n     * _Available since v3.4._\n     */\n    function tryMul(uint256 a, uint256 b) internal pure returns (bool, uint256) {\n        unchecked {\n            // Gas optimization: this is cheaper than requiring 'a' not being zero, but the\n            // benefit is lost if 'b' is also tested.\n            // See: https://github.com/OpenZeppelin/openzeppelin-contracts/pull/522\n            if (a == 0) return (true, 0);\n            uint256 c = a * b;\n            if (c / a != b) return (false, 0);\n            return (true, c);\n        }\n    }\n\n    /**\n     * @dev Returns the division of two unsigned integers, with a division by zero flag.\n     *\n     * _Available since v3.4._\n     */\n    function tryDiv(uint256 a, uint256 b) internal pure returns (bool, uint256) {\n        unchecked {\n            if (b == 0) return (false, 0);\n            return (true, a / b);\n        }\n    }\n\n    /**\n     * @dev Returns the remainder of dividing two unsigned integers, with a division by zero flag.\n     *\n     * _Available since v3.4._\n     */\n    function tryMod(uint256 a, uint256 b) internal pure returns (bool, uint256) {\n        unchecked {\n            if (b == 0) return (false, 0);\n            return (true, a % b);\n        }\n    }\n\n    /**\n     * @dev Returns the addition of two unsigned integers, reverting on\n     * overflow.\n     *\n     * Counterpart to Solidity's `+` operator.\n     *\n     * Requirements:\n     *\n     * - Addition cannot overflow.\n     */\n    function add(uint256 a, uint256 b) internal pure returns (uint256) {\n        return a + b;\n    }\n\n    /**\n     * @dev Returns the subtraction of two unsigned integers, reverting on\n     * overflow (when the result is negative).\n     *\n     * Counterpart to Solidity's `-` operator.\n     *\n     * Requirements:\n     *\n     * - Subtraction cannot overflow.\n     */\n    function sub(uint256 a, uint256 b) internal pure returns (uint256) {\n        return a - b;\n    }\n\n    /**\n     * @dev Returns the multiplication of two unsigned integers, reverting on\n     * overflow.\n     *\n     * Counterpart to Solidity's `*` operator.\n     *\n     * Requirements:\n     *\n     * - Multiplication cannot overflow.\n     */\n    function mul(uint256 a, uint256 b) internal pure returns (uint256) {\n        return a * b;\n    }\n\n    /**\n     * @dev Returns the integer division of two unsigned integers, reverting on\n     * division by zero. The result is rounded towards zero.\n     *\n     * Counterpart to Solidity's `/` operator.\n     *\n     * Requirements:\n     *\n     * - The divisor cannot be zero.\n     */\n    function div(uint256 a, uint256 b) internal pure returns (uint256) {\n        return a / b;\n    }\n\n    /**\n     * @dev Returns the remainder of dividing two unsigned integers. (unsigned integer modulo),\n     * reverting when dividing by zero.\n     *\n     * Counterpart to Solidity's `%` operator. This function uses a `revert`\n     * opcode (which leaves remaining gas untouched) while Solidity uses an\n     * invalid opcode to revert (consuming all remaining gas).\n     *\n     * Requirements:\n     *\n     * - The divisor cannot be zero.\n     */\n    function mod(uint256 a, uint256 b) internal pure returns (uint256) {\n        return a % b;\n    }\n\n    /**\n     * @dev Returns the subtraction of two unsigned integers, reverting with custom message on\n     * overflow (when the result is negative).\n     *\n     * CAUTION: This function is deprecated because it requires allocating memory for the error\n     * message unnecessarily. For custom revert reasons use {trySub}.\n     *\n     * Counterpart to Solidity's `-` operator.\n     *\n     * Requirements:\n     *\n     * - Subtraction cannot overflow.\n     */\n    function sub(\n        uint256 a,\n        uint256 b,\n        string memory errorMessage\n    ) internal pure returns (uint256) {\n        unchecked {\n            require(b <= a, errorMessage);\n            return a - b;\n        }\n    }\n\n    /**\n     * @dev Returns the integer division of two unsigned integers, reverting with custom message on\n     * division by zero. The result is rounded towards zero.\n     *\n     * Counterpart to Solidity's `/` operator. Note: this function uses a\n     * `revert` opcode (which leaves remaining gas untouched) while Solidity\n     * uses an invalid opcode to revert (consuming all remaining gas).\n     *\n     * Requirements:\n     *\n     * - The divisor cannot be zero.\n     */\n    function div(\n        uint256 a,\n        uint256 b,\n        string memory errorMessage\n    ) internal pure returns (uint256) {\n        unchecked {\n            require(b > 0, errorMessage);\n            return a / b;\n        }\n    }\n\n    /**\n     * @dev Returns the remainder of dividing two unsigned integers. (unsigned integer modulo),\n     * reverting with custom message when dividing by zero.\n     *\n     * CAUTION: This function is deprecated because it requires allocating memory for the error\n     * message unnecessarily. For custom revert reasons use {tryMod}.\n     *\n     * Counterpart to Solidity's `%` operator. This function uses a `revert`\n     * opcode (which leaves remaining gas untouched) while Solidity uses an\n     * invalid opcode to revert (consuming all remaining gas).\n     *\n     * Requirements:\n     *\n     * - The divisor cannot be zero.\n     */\n    function mod(\n        uint256 a,\n        uint256 b,\n        string memory errorMessage\n    ) internal pure returns (uint256) {\n        unchecked {\n            require(b > 0, errorMessage);\n            return a % b;\n        }\n    }\n}\n\n\n/**\n * @title TokenVesting\n * @dev Self\n */\ncontract TokenVesting is Ownable, ReentrancyGuard{\n    using SafeMath for uint256;\n    using SafeERC20 for IERC20;\n\n    struct VestingSchedule{\n        bool initialized;\n        // beneficiary of tokens after they are released\n        address  beneficiary;\n        // cliff period in seconds\n        uint256  cliff;\n        // start time of the vesting period\n        uint256  start;\n        // duration of the vesting period in seconds\n        uint256  duration;\n        // duration of a slice period for the vesting in seconds\n        uint256 slicePeriodSeconds;\n        // whether or not the vesting is revocable\n        bool  revocable;\n        // total amount of tokens to be released at the end of the vesting\n        uint256 amountTotal;\n        // amount of tokens released\n        uint256  released;\n        // whether or not the vesting has been revoked\n        bool revoked;\n    }\n\n    // address of the DeFiBet token\n    IERC20 private DBETH_Token;\n\n    bytes32[] private vestingSchedulesIds;\n    mapping(bytes32 => VestingSchedule) private vestingSchedules;\n    uint256 private vestingSchedulesTotalAmount;\n    mapping(address => uint256) private holdersVestingCount;\n\n    event Released(uint256 amount);\n    event Revoked();\n\n    /**\n    * @dev Reverts if no vesting schedule matches the passed identifier.\n    */\n    modifier onlyIfVestingScheduleExists(bytes32 vestingScheduleId) {\n        require(vestingSchedules[vestingScheduleId].initialized == true);\n        _;\n    }\n\n    /**\n    * @dev Reverts if the vesting schedule does not exist or has been revoked.\n    */\n    modifier onlyIfVestingScheduleNotRevoked(bytes32 vestingScheduleId) {\n        require(vestingSchedules[vestingScheduleId].initialized == true);\n        require(vestingSchedules[vestingScheduleId].revoked == false);\n        _;\n    }\n\n    /**\n     * @dev Creates a vesting contract.\n     * @param token_DBETH_ address of the ERC20 token contract\n     */\n    constructor(address token_DBETH_) {\n        require(token_DBETH_ != address(0x0));\n        DBETH_Token = IERC20(token_DBETH_);\n    }\n\n    receive() external payable {}\n\n    fallback() external payable {}\n\n /**\n    * @dev Returns the number of vesting schedules associated to a beneficiary.\n    * @return the number of vesting schedules\n    */\n    function getVestingSchedulesCountByBeneficiary(address _beneficiary)\n    external\n    view\n    returns(uint256){\n        return holdersVestingCount[_beneficiary];\n    }\n\n    /**\n    * @dev Returns the vesting schedule id at the given index.\n    * @return the vesting id\n    */\n    function getVestingIdAtIndex(uint256 index)\n    external\n    view\n    returns(bytes32){\n        require(index < getVestingSchedulesCount(), \"TokenVesting: index out of bounds\");\n        return vestingSchedulesIds[index];\n    }\n\n    /**\n    * @notice Returns the vesting schedule information for a given holder and index.\n    * @return the vesting schedule structure information\n    */\n    function getVestingScheduleByAddressAndIndex(address holder, uint256 index)\n    external\n    view\n    returns(VestingSchedule memory){\n        return getVestingSchedule(computeVestingScheduleIdForAddressAndIndex(holder, index));\n    }\n\n\n    /**\n    * @notice Returns the total amount of vesting schedules.\n    * @return the total amount of vesting schedules\n    */\n    function getVestingSchedulesTotalAmount()\n    external\n    view\n    returns(uint256){\n        return vestingSchedulesTotalAmount;\n    }\n\n    /**\n    * @dev Returns the address of the ERC20 token managed by the vesting contract.\n    */\n    function getToken()\n    external\n    view\n    returns(address){\n        return address(DBETH_Token);\n    }\n\n    /**\n    * @notice Creates a new vesting schedule for a beneficiary.\n    * @param _beneficiary address of the beneficiary to whom vested tokens are transferred\n    * @param _start start time of the vesting period\n    * @param _cliff duration in seconds of the cliff in which tokens will begin to vest\n    * @param _duration duration in seconds of the period in which the tokens will vest\n    * @param _slicePeriodSeconds duration of a slice period for the vesting in seconds\n    * @param _revocable whether the vesting is revocable or not\n    * @param _amount total amount of tokens to be released at the end of the vesting\n    */\n    function createVestingSchedule(\n        address _beneficiary,\n        uint256 _start,\n        uint256 _cliff,\n        uint256 _duration,\n        uint256 _slicePeriodSeconds,\n        bool _revocable,\n        uint256 _amount\n    )\n        public\n        onlyOwner{\n        require(\n            this.getWithdrawableAmount() >= _amount,\n            \"TokenVesting: cannot create vesting schedule because not sufficient tokens\"\n        );\n        require(_duration > 0, \"TokenVesting: duration must be > 0\");\n        require(_amount > 0, \"TokenVesting: amount must be > 0\");\n        require(_slicePeriodSeconds >= 1, \"TokenVesting: slicePeriodSeconds must be >= 1\");\n        bytes32 vestingScheduleId = this.computeNextVestingScheduleIdForHolder(_beneficiary);\n        uint256 cliff = _start.add(_cliff);\n        vestingSchedules[vestingScheduleId] = VestingSchedule(\n            true,\n            _beneficiary,\n            cliff,\n            _start,\n            _duration,\n            _slicePeriodSeconds,\n            _revocable,\n            _amount,\n            0,\n            false\n        );\n        vestingSchedulesTotalAmount = vestingSchedulesTotalAmount.add(_amount);\n        vestingSchedulesIds.push(vestingScheduleId);\n        uint256 currentVestingCount = holdersVestingCount[_beneficiary];\n        holdersVestingCount[_beneficiary] = currentVestingCount.add(1);\n    }\n\n    /**\n    * @notice Revokes the vesting schedule for given identifier.\n    * @param vestingScheduleId the vesting schedule identifier\n    */\n    function revoke(bytes32 vestingScheduleId)\n        public\n        onlyOwner\n        onlyIfVestingScheduleNotRevoked(vestingScheduleId){\n        VestingSchedule storage vestingSchedule = vestingSchedules[vestingScheduleId];\n        require(vestingSchedule.revocable == true, \"TokenVesting: vesting is not revocable\");\n        uint256 vestedAmount = _computeReleasableAmount(vestingSchedule);\n        if(vestedAmount > 0){\n            release(vestingScheduleId, vestedAmount);\n        }\n        uint256 unreleased = vestingSchedule.amountTotal.sub(vestingSchedule.released);\n        vestingSchedulesTotalAmount = vestingSchedulesTotalAmount.sub(unreleased);\n        vestingSchedule.revoked = true;\n    }\n\n    /**\n    * @notice Withdraw the specified amount if possible.\n    * @param amount the amount to withdraw\n    */\n    function withdraw(uint256 amount)\n        public\n        nonReentrant\n        onlyOwner{\n        require(this.getWithdrawableAmount() >= amount, \"TokenVesting: not enough withdrawable funds\");\n        DBETH_Token.safeTransfer(owner(), amount);\n    }\n\n    /**\n    * @notice Release vested amount of tokens.\n    * @param vestingScheduleId the vesting schedule identifier\n    * @param amount the amount to release\n    */\n    function release(\n        bytes32 vestingScheduleId,\n        uint256 amount\n    )\n        public\n        nonReentrant\n        onlyIfVestingScheduleNotRevoked(vestingScheduleId){\n        VestingSchedule storage vestingSchedule = vestingSchedules[vestingScheduleId];\n        bool isBeneficiary = _msgSender() == vestingSchedule.beneficiary;\n        bool isOwner = _msgSender() == owner();\n        require(\n            isBeneficiary || isOwner,\n            \"TokenVesting: only beneficiary and owner can release vested tokens\"\n        );\n        uint256 vestedAmount = _computeReleasableAmount(vestingSchedule);\n        require(vestedAmount >= amount, \"TokenVesting: cannot release tokens, not enough vested tokens\");\n        vestingSchedule.released = vestingSchedule.released.add(amount);\n        address payable beneficiaryPayable = payable(vestingSchedule.beneficiary);\n        vestingSchedulesTotalAmount = vestingSchedulesTotalAmount.sub(amount);\n        DBETH_Token.safeTransfer(beneficiaryPayable, amount);\n    }\n\n    /**\n    * @dev Returns the number of vesting schedules managed by this contract.\n    * @return the number of vesting schedules\n    */\n    function getVestingSchedulesCount()\n        public\n        view\n        returns(uint256){\n        return vestingSchedulesIds.length;\n    }\n\n    /**\n    * @notice Computes the vested amount of tokens for the given vesting schedule identifier.\n    * @return the vested amount\n    */\n    function computeReleasableAmount(bytes32 vestingScheduleId)\n        public\n        onlyIfVestingScheduleNotRevoked(vestingScheduleId)\n        view\n        returns(uint256){\n        VestingSchedule storage vestingSchedule = vestingSchedules[vestingScheduleId];\n        return _computeReleasableAmount(vestingSchedule);\n    }\n\n    /**\n    * @notice Returns the vesting schedule information for a given identifier.\n    * @return the vesting schedule structure information\n    */\n    function getVestingSchedule(bytes32 vestingScheduleId)\n        public\n        view\n        returns(VestingSchedule memory){\n        return vestingSchedules[vestingScheduleId];\n    }\n\n    /**\n    * @dev Returns the amount of tokens that can be withdrawn by the owner.\n    * @return the amount of tokens\n    */\n    function getWithdrawableAmount()\n        public\n        view\n        returns(uint256){\n        return DBETH_Token.balanceOf(address(this)).sub(vestingSchedulesTotalAmount);\n    }\n\n    /**\n    * @dev Computes the next vesting schedule identifier for a given holder address.\n    */\n    function computeNextVestingScheduleIdForHolder(address holder)\n        public\n        view\n        returns(bytes32){\n        return computeVestingScheduleIdForAddressAndIndex(holder, holdersVestingCount[holder]);\n    }\n\n    /**\n    * @dev Returns the last vesting schedule for a given holder address.\n    */\n    function getLastVestingScheduleForHolder(address holder)\n        public\n        view\n        returns(VestingSchedule memory){\n        return vestingSchedules[computeVestingScheduleIdForAddressAndIndex(holder, holdersVestingCount[holder] - 1)];\n    }\n\n    /**\n    * @dev Computes the vesting schedule identifier for an address and an index.\n    */\n    function computeVestingScheduleIdForAddressAndIndex(address holder, uint256 index)\n        public\n        pure\n        returns(bytes32){\n        return keccak256(abi.encodePacked(holder, index));\n    }\n\n    /**\n    * @dev Computes the releasable amount of tokens for a vesting schedule.\n    * @return the amount of releasable tokens\n    */\n    function _computeReleasableAmount(VestingSchedule memory vestingSchedule)\n    internal\n    view\n    returns(uint256){\n        uint256 currentTime = getCurrentTime();\n        if ((currentTime < vestingSchedule.cliff) || vestingSchedule.revoked == true) {\n            return 0;\n        } else if (currentTime >= vestingSchedule.start.add(vestingSchedule.duration)) {\n            return vestingSchedule.amountTotal.sub(vestingSchedule.released);\n        } else {\n            uint256 timeFromStart = currentTime.sub(vestingSchedule.start);\n            uint secondsPerSlice = vestingSchedule.slicePeriodSeconds;\n            uint256 vestedSlicePeriods = timeFromStart.div(secondsPerSlice);\n            uint256 vestedSeconds = vestedSlicePeriods.mul(secondsPerSlice);\n            uint256 vestedAmount = vestingSchedule.amountTotal.mul(vestedSeconds).div(vestingSchedule.duration);\n            vestedAmount = vestedAmount.sub(vestingSchedule.released);\n            return vestedAmount;\n        }\n    }\n\n    function getCurrentTime()\n        internal\n        virtual\n        view\n        returns(uint256){\n        return block.timestamp;\n    }\n\n}",
  "sourcePath": "/home/dharmik/Documents/Vesting-Contract/contracts/TokenVesting.sol",
  "compiler": {
    "name": "solc",
    "version": "0.8.13+commit.abaa5c0e.Emscripten.clang"
  },
  "schemaVersion": "3.4.7",
  "updatedAt": "2022-04-14T05:18:10.055Z",
  "networkType": "ethereum",
  "devdoc": {
    "details": "Self",
    "kind": "dev",
    "methods": {
      "computeNextVestingScheduleIdForHolder(address)": {
        "details": "Computes the next vesting schedule identifier for a given holder address."
      },
      "computeReleasableAmount(bytes32)": {
        "returns": {
          "_0": "the vested amount"
        }
      },
      "computeVestingScheduleIdForAddressAndIndex(address,uint256)": {
        "details": "Computes the vesting schedule identifier for an address and an index."
      },
      "constructor": {
        "details": "Creates a vesting contract.",
        "params": {
          "token_DBETH_": "address of the ERC20 token contract"
        }
      },
      "createVestingSchedule(address,uint256,uint256,uint256,uint256,bool,uint256)": {
        "params": {
          "_amount": "total amount of tokens to be released at the end of the vesting",
          "_beneficiary": "address of the beneficiary to whom vested tokens are transferred",
          "_cliff": "duration in seconds of the cliff in which tokens will begin to vest",
          "_duration": "duration in seconds of the period in which the tokens will vest",
          "_revocable": "whether the vesting is revocable or not",
          "_slicePeriodSeconds": "duration of a slice period for the vesting in seconds",
          "_start": "start time of the vesting period"
        }
      },
      "getLastVestingScheduleForHolder(address)": {
        "details": "Returns the last vesting schedule for a given holder address."
      },
      "getToken()": {
        "details": "Returns the address of the ERC20 token managed by the vesting contract."
      },
      "getVestingIdAtIndex(uint256)": {
        "details": "Returns the vesting schedule id at the given index.",
        "returns": {
          "_0": "the vesting id"
        }
      },
      "getVestingSchedule(bytes32)": {
        "returns": {
          "_0": "the vesting schedule structure information"
        }
      },
      "getVestingScheduleByAddressAndIndex(address,uint256)": {
        "returns": {
          "_0": "the vesting schedule structure information"
        }
      },
      "getVestingSchedulesCount()": {
        "details": "Returns the number of vesting schedules managed by this contract.",
        "returns": {
          "_0": "the number of vesting schedules"
        }
      },
      "getVestingSchedulesCountByBeneficiary(address)": {
        "details": "Returns the number of vesting schedules associated to a beneficiary.",
        "returns": {
          "_0": "the number of vesting schedules"
        }
      },
      "getVestingSchedulesTotalAmount()": {
        "returns": {
          "_0": "the total amount of vesting schedules"
        }
      },
      "getWithdrawableAmount()": {
        "details": "Returns the amount of tokens that can be withdrawn by the owner.",
        "returns": {
          "_0": "the amount of tokens"
        }
      },
      "owner()": {
        "details": "Returns the address of the current owner."
      },
      "release(bytes32,uint256)": {
        "params": {
          "amount": "the amount to release",
          "vestingScheduleId": "the vesting schedule identifier"
        }
      },
      "renounceOwnership()": {
        "details": "Leaves the contract without owner. It will not be possible to call `onlyOwner` functions anymore. Can only be called by the current owner. NOTE: Renouncing ownership will leave the contract without an owner, thereby removing any functionality that is only available to the owner."
      },
      "revoke(bytes32)": {
        "params": {
          "vestingScheduleId": "the vesting schedule identifier"
        }
      },
      "transferOwnership(address)": {
        "details": "Transfers ownership of the contract to a new account (`newOwner`). Can only be called by the current owner."
      },
      "withdraw(uint256)": {
        "params": {
          "amount": "the amount to withdraw"
        }
      }
    },
    "title": "TokenVesting",
    "version": 1
  },
  "userdoc": {
    "kind": "user",
    "methods": {
      "computeReleasableAmount(bytes32)": {
        "notice": "Computes the vested amount of tokens for the given vesting schedule identifier."
      },
      "createVestingSchedule(address,uint256,uint256,uint256,uint256,bool,uint256)": {
        "notice": "Creates a new vesting schedule for a beneficiary."
      },
      "getVestingSchedule(bytes32)": {
        "notice": "Returns the vesting schedule information for a given identifier."
      },
      "getVestingScheduleByAddressAndIndex(address,uint256)": {
        "notice": "Returns the vesting schedule information for a given holder and index."
      },
      "getVestingSchedulesTotalAmount()": {
        "notice": "Returns the total amount of vesting schedules."
      },
      "release(bytes32,uint256)": {
        "notice": "Release vested amount of tokens."
      },
      "revoke(bytes32)": {
        "notice": "Revokes the vesting schedule for given identifier."
      },
      "withdraw(uint256)": {
        "notice": "Withdraw the specified amount if possible."
      }
    },
    "version": 1
  }
}